:08400000076D01090001010236
:0240200021F18C
:01406000223D
:0640800022000007600DA4
:1041F1007581D0C2AF75FFDE75FFAD53F8F37584DD
:104201000F75E11C75E20075E34C75A47075ADFF87
:1042110075A5FF75901B75A67D75A0BF75A7FF7568
:10422100B083759CFF75C8FF759D0075D8FF759E9D
:10423100FF75E847759F8175F87E75840075A32029
:104241007543FD129D997544AF12D97D75450F12C5
:10425100D98775461312D99175472912D9A1754885
:10426100F012D9AB75490612D9B575D10375D48051
:1042710075D20075D30075840175D4007584001260
:10428100DAB1754A2112D9BF754B0012D9CF740129
:1042910090005AF075840F758C6712DAB1E58C3095
:1042A100E7FB759701758A0075890475840075B7F8
:1042B1003075840F438901758D01758F01758E05E8
:1042C10012DAE6758907E58930E4FB759702758492
:1042D100001250B45348FD12D9AB5349EF12D9B56E
:1042E10053497F12D9B55349BF12D9B54345081275
:1042F100D98743472012D9A175840F759CFF758416
:1043010000753200753380124FD8753200753380D5
:1043110012501575320075338012500975320075CF
:10432100338012500375320075330012500F53441D
:10433100BF43448012D97D5348FE12D9AB75360074
:1043410075370012CF7D75DC00C200C201C202C206
:1043510003C204C205C207C208C209C20AC20BC213
:104361000CC20EC210C211C212C213C214C215C2B3
:1043710018C219C21FC220C2217550009000AC742E
:1043810000F0A3F090000A74FFF075985075910A3F
:1043910075840175C80075C90875CABB75CCBB7534
:0543A100CBFE75CDFE0E
:1043A600D2CAC21E7584017598507584007589221B
:1043B600438E09758D94D28E75C80075840275C8B2
:1043C6000075C90875CA3875CC3875CBFF75CDFF31
:1043D60075500012AD4D80007584007581D0C2986D
:1043E6003098FD71ED80F1C2AFC2ACD29953E7BFF0
:1043F600758401C298D29975840012DA06B45505FF
:1044060012D9FE8048745512D9FE12DAA520983DBD
:10441600201E1D12DB3BD21E12DAB17E02D2994358
:104426009802745512D9FE12DAA5209820DEEE22E3
:1044360012DB1AC21E12DAA57E02D29943980274C2
:104446005512D9FE12DAA5209803DEEE2212DA06FC
:10445600406DB4F8B074AA12D9FE12DA064060F5BF
:104466003012DA06405912DA064054F53112DA06ED
:10447600404D7C00E53025E0FD50010C9044E5E51B
:10448600822DF582E5833CF583E493FEA3E4938EC7
:1044960083F582AF31BF00028023E493F9A3E4934E
:1044A600F8A312DA064018AA82AB8388828983F0C1
:1044B600A312DA064009F08A828B83DFDD91C8C237
:1044C6000522904AB1E5822DF582E5833CF583E429
:1044D60093FEA3E4938E83F582C298C205E47346E5
:1044E60009460B460B460B460D460F461146174628
:1044F6001B4621462346254627470F4757470F4762
:104506000F470F47614761470F470F470F47AB47B5
:104516000F47B1470F470F470F470F470F47C5478D
:10452600C547C547C547C747C747CB47CB47CB470F
:10453600CB47CD47CD47CD47CF47CF47DD47DF47B1
:10454600DF47DF47DF470F470F47DF4801470F4782
:104556000F4813480148014815470F481D481D4894
:104566001D482148214849470F4849484948494874
:10457600B94903491549174949499549974A7B4914
:10458600A74629462949E349E5462949E749E9462F
:104596002949EB49EF49F949FB49FD49FF4A014AD7
:1045A600034A054A054A054A214A434A434A454AB7
:1045B6004F4A514A534A554A574A594A5B4A5B4AF7
:1045C6005B4A5F4A5F4A634A634A654A674A694A81
:1045D600694A6B4A6D4A734A734A754A754A794AFB
:1045E600054A794A794A7B4A874A7B4A994A9B4ACD
:1045F6009D4A9F4A9F4A9F4A9F4AAF4AAF4AAF4A3F
:10460600AF4AAF0008000E0012001600500052001C
:104616005400940092005E00600062006E009400F8
:1046260018008E00DE00E000E200E400E600E8008C
:10463600EA00EC00EE00F000F200F400F600F800EC
:10464600FA00FC00FE010001020104010601080156
:104656000A010C010E0110011201140116011801C4
:104666001A011C011E012001220124012601280134
:104676002A012C012E0130013201340136013801A4
:104686003A013C01C201C401C601C801CA01CC01FC
:10469600CE01D001D201D401D601D801DA01DC0164
:1046A600DE01E001E201E401E601E801EA01EC01D4
:1046B600EE01F001F201F401F601F801FA01FC0144
:1046C600FE02000202020402060208020A020C02AC
:1046D6000E02100212021402160218021A021C021C
:1046E6001E02200222022402260228022A022C028C
:1046F6002E02300232023402360238023A023C02FC
:104706003E02400242024400D0000E001200140095
:0D471600740076015A015C0008005E00D6B8
:1047230000D800DA00DC00B200B400820084008606
:10473300008A008C008E0090009600CE0088007CDA
:10474300009A009C009E00A000A200A400A600A85E
:1047530000AA00D0000E0078008400860088000EB6
:10476300001200740076015A015C0008005E00DE4E
:1047730000E000E200E400E600E800EA00EC00826A
:1047830000840086008A008C008E0090009600CE84
:104793000088007C009A009C009E00A000A200A458
:1047A30000A600A800AA00D00084008600AC025036
:1047B30000D600D800DA00DC008E00CE0082009C18
:1047C300009E007A001200D0000800C6000E015AB5
:1047D30000D600B200B4008E0090007E0250025258
:1047E300025402560258025A025C0082008400CE30
:1047F300008E009000D600D800DA00DC025E008252
:10480300008400CE008E009000D600D800DA00DCD1
:10481300001A000000020004000600AE00B0000E03
:10482300015A015C008A008C008E0090008400DE37
:1048330000E000E200E400E600E800EA00EC00EE3D
:1048430000F000F200F4015A015C015E01540156CC
:104853000158008A008C007C00DE00E000E200E4E6
:1048630000E600E800EA00EC00EE00F000F200F4DD
:1048730000F600F800FA00FC00FE0100010201044A
:1048830001060108010A010C0178017A017C017E0D
:1048930001800182018401860188018A018C018ED5
:1048A3000096009A009C009E00A000A200A400A60F
:1048B30000A800AA00D0015A015C015E00740076D2
:1048C300008A008C007C00DE00E000E200E400E6E9
:1048D30000E800EA00EC00EE00F000F200F400F65D
:1048E30000F800FA00FC008E00900096009A009CED
:1048F300009E00A000A200A400A600A800AA00D069
:10490300015A015C008C008E009000D600D800DABA
:1049130000DC00C0008A008C015A015C00DE00E06C
:1049230000E200E400E600E800EA00EC00EE00F03C
:1049330000F200F40142008E00360048004A004CA9
:10494300004E004600D0008A008C015A015C00DE54
:1049530000E000E200E400E600E800EA00EC00EE1C
:1049630000F000F200F40082002401460074007697
:10497300013E01400096009C0142008E00D600D803
:1049830000DA00DC00360048004A004C004E0046C6
:1049930000D0008A008201460024007400760140A2
:1049A300009C00D0015A015C01540156008A00DECC
:1049B30000E000E200E400E600E800EA00EC008228
:1049C3000024014600740076013E01400096009CDD
:1049D300009E014200360048004A004C004E00464B
:1049E300025A001C00C800CA008E00360246024864
:1049F300024A024C024E00B600BA00BC00B800BE28
:104A0300008E02500252025402560258025A025CAD
:104A13000082025E026202640266008A00CE0250D5
:104A23000252025402560258025A025C0082008A61
:104A330000CE00D600D800DA00DC008E0090025EC3
:104A4300005C000E00D600D800DA00DC001E002057
:104A53000022002402680098008A0082026A026C25
:104A6300005000520054006A000C006400660068A5
:104A7300006C00560058008200360048004A004C83
:104A8300004E004600360038003A003C003E00402D
:0D4A93000042004400460036008200820010
:104AA000260028002A002C002E003000320034009E
:104AB000CC51D451DC51E051E451EB51F852055244
:104AC0000F52E652FC531053F153FE55C376A277B2
:104AD0008F778F7FBF82AA82EC84A385AA86ED8B15
:104AE000858C1C8FCE8FCE944895D09D7C956D9DE6
:104AF000A89DAE9DB49DC09DCC9DE99DFE9E099E46
:104B0000189E279E3E9E4E9E4F9E639E63A082A04F
:104B100096A0A5A0B5A0BCA0D4A257A397A5B6A95E
:104B200046AB20ACEAACF8ACF9ACFAACFEACFEADEE
:104B300030AE37AE66AF6BB0139BEEB020B1F1B3C1
:104B400055B7A2B89AB951B9D3BAB8B9B8BCC0BDB3
:104B500006BD4EBE66C85CCC66CC73B4AACC7ECC17
:104B600093CA2ECCA8CD71CE46CE54CE62CE70CE96
:104B70007FCD30A237CE8DD04AD293D3CFD3EC8223
:104B80002C827F828D829B82A9D401D451D9FAD400
:104B9000ADD4B0D543D543D6BED6BFD6C3D6C7D67F
:104BA000CBD6CCD6D4D6E8D73AD73AD75AD75AD7D5
:104BB00061CE90D761D762D7DFD803D803D83DD86C
:104BC00063D876D8DAD8DDD8DDD8E7D8F1D8F1D8EF
:104BD000F1D8F1D8F222C007FF20120571FED007EC
:104BE00022C0077F0371FE12DAB7740212ADE7D05C
:104BF00007EF12ADE712DAB112DAB1D00722C083A3
:104C0000C08290000AE0C39FC0E0EFF0D0E0D08205
:104C1000D08370012220100B75840FD2F8758400A8
:104C200012DAB7EFB40A0D53460F43469012D991EA
:104C300012DAB722B40B1553460F43469012D9919E
:104C400012DA9975840FC2F875840022B40C0A43F5
:104C500046F012D99112DAB722B4001553460F4329
:104C6000468012D99112DA9975840FC2F8758400C2
:104C700022B4011530100875840FD2F875840043F2
:104C800046F012D99112DAB722C3940223232323C8
:104C900053460F424612D99112DA9975840FC2F821
:104CA00075840022600743491012D9B5225349EF99
:104CB00012D9B522600743498012D9B52253497FE2
:104CC00012D9B522600743494012D9B5225349BFD2
:104CD00012D9B522C007FF540F71D6EF541091A41A
:104CE000EF542091B4EF544091C4D00722B101B1E8
:104CF0001C12DA9912DA99B13D12DA99B14FB12A40
:104D00002220120A20130D43460112D99122740465
:104D100012ADE722740312ADE7B10722534B7F12A5
:104D2000D9CF22434B8012D9CF22B1302012082292
:104D30005347FB12D9A122740612ADE722201209B3
:104D400075840FC2ED75840022740A12ADE722202B
:104D5000120753457F12D98722740812ADE722B19A
:104D60009512DA99B1A712DA9912DA99B16F225332
:104D700046FE12D99120120420130722740312ADAB
:104D8000E7222220120743470412D9A122740512F8
:104D9000ADE7B1302275840FD2ED75840020120189
:104DA00022740912ADE72243458012D987201201EF
:104DB00022740712ADE722900050E070075349FBC0
:104DC00012D9B522C0E043490412D9B5D0E0B401EC
:104DD000105348FB5348F712D9AB43470112D9A1EE
:104DE00022B402104348045348F712D9AB43470199
:104DF00012D9A122B403105348FB43480812D9AB7F
:104E000043470112D9A122B404104348044348087F
:104E100012D9AB43470112D9A122B405105348FB64
:104E20005348F712D9AB5347FE12D9A122B406104A
:104E30004348045348F712D9AB5347FE12D9A12275
:104E4000B407105348FB43480812D9AB5347FE122E
:104E5000D9A12243480443480812D9AB5347FE1254
:104E6000D9A12220120E900052E0235346F142466F
:104E700012D9912222900054E0700743490812D9B8
:104E8000B522C0E05349F712D9B5D0E0B4011053B0
:104E900047BF53477F12D9A15349FE12D9B522B457
:104EA000021043474053477F12D9A15349FE12D9FC
:014EB000B54C
:104EB10022B403105347BF43478012D9A15349FE7F
:104EC10012D9B522B4041043474043478012D9A1F7
:104ED1005349FE12D9B522B405105347BF53477F3A
:104EE10012D9A143490112D9B522B4061043474052
:104EF10053477F12D9A143490112D9B522B40710F2
:104F01005347BF43478012D9A143490112D9B52262
:104F110043474043478012D9A143490112D9B522E1
:104F2100900056E023534AF1424A12D9BF22900021
:104F310058E0700122B4010D534BFE534BFD534B0E
:104F4100F712D9CF22B4020D434B01534BFD534B02
:104F5100F712D9CF22B4030D534BFE434B02534BEF
:104F6100F712D9CF22B4040D434B01434B02534BEB
:104F7100F712D9CF22B4050D534BFE534BFD434BD2
:104F81000812D9CF22B4060D434B01534BFD434BBD
:104F91000812D9CF22B4070D534BFE434B02434BAA
:104FA1000812D9CF22434B01434B02434B0812D97C
:104FB100CF2275840FE0F5C800D29500C295A3E019
:104FC100F5C800D29600C296758400C29300D293B0
:104FD100D2A20000C2A22275840F8532C800D295E8
:104FE10000C2958533C800D29600C296758400C26E
:104FF1009300D293D2A20000C2A222E0F532A3E034
:10500100F5337534C0111B22753400111B22753420
:1050110040111B22753480111B22C007C2A500005C
:105021000000C2B17F02E53433F534C2A400005060
:1050310004D2A40000D2A500C2A500DFE97F08E5E3
:085041003333F533C2A4000073
:105049005004D2A40000D2A500C2A500DFE97F0860
:10505900E53233F532C2A400005004D2A40000D2D4
:10506900A500C2A500DFE9D2B1C2B00000D2B0D01C
:10507900072230110F740412AE73E53212AE73E5D4
:105089003312AE732230110F740512AE73E532126A
:10509900AE73E53312AE732230110F740612AE737C
:1050A900E53212AE73E53312AE732243440112D9CD
:1050B9007D43440412D97D5344EF12D97D434502FF
:1050C90012D987C2920000000000C291C2902275D5
:1050D900840F759CFF75840043441012D97DC294D6
:1050E900740075840FF5C8758400D29500C2957453
:1050F9000075840FF5C8758400D29600C296C293D4
:1051090000D2935344FE12D97D5344FB12D97DD268
:10511900A20000C2A22275840F759C0075C8FF7594
:105129009D0075D8FF75840043442012D97DC2B70C
:10513900C2A0D2905344F712D97D43440812D97DB5
:105149002275840F759C0075C8FF759D0075D8FF81
:1051590075840043442012D97DC2B7C2A05344F7D5
:1051690012D97D43440812D97D2275840F759C009C
:1051790075C8FF759D0075D8FF758400D2A053448A
:10518900F712D97D43440812D97D2275840F759C85
:105199000075C8FF759D0075D8FF758400D2A022DF
:1051A900E53612D9FEE53712D9FE22E53612D9FEC7
:1051B900E53712D9FEE53812D9FE2231B4E53912A4
:1051C900D9FE2231C4E53A12D9FE22900008E01234
:1051D9004BD622124CED22124D5F2290000E124F37
:1051E900B322900012E0F532A3E0F53311032290C7
:1051F9000016E0F532A3E0F533111522124DB7126E
:105209004E63124E7522711012DAE630160312DA65
:1052190099201513C006C00790009212EC4551550C
:0B52290031C4D007D00622C006C00729
:1052340090009212EC455155D2B65345CF12D987FE
:1052440031C490009212EC45515531C4D007D006B8
:105254002253443F12D97D75840F759C0075C8FF95
:10526400759D0075D8FF758400C2A075360075372A
:1052740000753800753900D291000000000000006C
:10528400C29175840275CA3875CC3875CBFF75CD5B
:10529400FFD2CAC2CF75840230CFFDC2CF75840F4E
:1052A400E5D82536F536E5C8D291000000000000A7
:1052B40000C2913537F53750080538E538700205D6
:1052C40039DFD2DED0758402C2CA758400D2A075DB
:1052D400840F759CFF7584005344BF43448012D9E6
:1052E4007D2290005EE0124CA4900060E0124CB469
:1052F400900062E0124CC42290006EE060074345C7
:105304000412D987225345FB12D98722900094E0D6
:10531400B41403C21622C215C216900094E0B4005D
:105324001DE54554087008D21643450812D987E58F
:105334004754207008D21643472012D9A122B40939
:105344001DE54554087008D21643450812D987E56F
:105354004754206008D2165347DF12D9A122C0E077
:10536400E54554086008D2165345F712D987D0E0B2
:10537400B40109C2B65345CF12D98722B40209D267
:10538400B65345CF12D98722B4030CC2B643452085
:105394005345EF12D98722B4040CD2B643452053A7
:1053A40045EF12D98722B4050CC2B65345DF4345F5
:1053B4001012D98722B4060CD2B65345DF434510E8
:1053C40012D98722B4070CC2B643452043451012B4
:1053D400D98722B4080CD2B643452043451012D9CC
:1053E4008722C2B65345CF12D987D215229000180E
:0153F400E0D8
:1053F500F532A3E0F5331109229000507401F01243
:105405004DB7900008E0124BD67400124CA47400FE
:10541500124CB47400124CC412A0A5124D9512DAA8
:1054250099124DA790000EE0F532A3E02420F53344
:10543500124FD812DA9990000E124FB312DA9990E2
:10544500008E12EC45515531C4124D3D124D4F128F
:10545500A09690005EE0124CA4900060E0124CB45F
:10546500900062E0124CC422C2AFC2ADC2CAC2CF24
:105475009000D8E0B4000543C9088006B401145370
:10548500C9F79000D6E0F5CAF5CCA3E0F5CBF5CD8C
:10549500D2CA22B4020543C908800353C9F7900054
:1054A500DAE0F53DA3E0F53EA3E0F53FE53D600814
:1054B500053EE53E7002053FE53E6002053F853D40
:1054C50040853E41853F429000D6E0F5CAF5CCA324
:1054D500E0F5CBF5CDD2AFD2ADC206D2CA22C2CA53
:1054E500C2CF43C9089000D6E0F5CAF5CCA3E0F5D4
:1054F500CBF5CDD2CA229000D8E06003B40108B143
:105505002D30CFFDC2CF22B12D300501223006F757
:10551500C206229000D8E06003B4010630CFFDC278
:0D552500CF223006FDC2062230981EC2982B
:10553200E599B41B03D20522B41303B14F22B4126E
:1055420005B218D21922B40203D21A22223098FDCF
:10555200C298E599B41B03D20522B4110122B412F8
:1055620005B218D21922B400E4B16F80E01270457E
:1055720031A922C004C005850705850604ED600136
:105582001CC3900086E09DFFA3E09CFEEF60010E2D
:10559200B294C219D005D00412DA862290009AE0A1
:1055A200B4021975840F30FB137584003098F4E54A
:1055B20099C298B41B0302ECC9B411E775840022A6
:1055C20022B19E53443F12D97D90000EE075840FA4
:1055D200F5C8758400D29500C295A3E075840FF5D5
:1055E200C8758400D29600C296C29300D2935344E7
:1055F200F712D97D43440812D97DC2199000CE1208
:10560200EC8F12EC388F538E5412EC2E8F518E5237
:1056120090008AE0C3941050199000AAE06013D25F
:10562200235345F712D987D2B65345CF12D98712E1
:10563200DA9990008AE0C3944C502D90008AE0C31E
:10564200943C4024900016E0F567A3E0F568756588
:1056520000756600D1FFD218900088E07002C2186F
:1056620090009EE0F555801490008CE0F555AB5506
:10567200900088E06004D2948002C29490008AE094
:10568200B4000302590BB40103025A28B402030204
:025692005B5368
:10569400B40303025C81B40403025D48B40503024D
:1056A4005E73B40E03025FACB47C030260F9B4868B
:1056B4000302629CB42803026468B42903026549A6
:1056C400B42A030266FCB42C0302687FB42D0302DF
:1056D40069F7B43603026B8BB43C02E166B43D0255
:1056E400E1E1B43E03025854B440030258B4B44157
:1056F400030258B4B44A0302590A22900074E0F534
:1057040069A3E0F56A900076E0F56BA3E0F56C22FE
:10571400E5652569F565E566356AF566E567356B22
:10572400F567E568356CF56885673285683322F17D
:1057340014111522C3E5659569F565E566956AF565
:1057440066E567956BF567E568956CF5688567327E
:1057540085683322F138111522301803F13322F110
:1057640058225345F712D987C2B65345CF12D98769
:1057740012DA99D29100000000000000C29120A129
:10578400FD311F916DAB5591FBF15DDBFAD29100B8
:10579400000000000000C29120A1FDD2B612DAEF91
:1057A400D29100000000000000C29120A1FDC2B609
:1057B40012DAEFDFD0DECEB21812EC38DDC7DCC56A
:1057C40020A1FDD290000000000000C290E55070BE
:1057D4000312ECBF12EC4F12EB3B02ECC95345F73A
:1057E40012D987C2B65345CF12D98712DA99D2910A
:1057F40000000000000000C29120A1FD12514A12D5
:10580400546DAB551254FB12575DDBF8126FCD1279
:10581400EAACD2B612DAEF126FCD12EAACC2B6120B
:0F582400DAEFDFDEDEDCB21812EC38DDD5DCD3D4
:10583300126FCD12EAACD2B612DAEF126FCD12EAC2
:10584300ACE550700312ECBF12EC4F12EBB602EC56
:10585300C95345F712D987C2B65345CF12D9871218
:10586300DA99900090E0F55712546D12552D3005DA
:105873000302ECC9AB551254FB12575DDBF8E55735
:105883001270BDD2B6E53612D9FEE53712D9FEE560
:10589300571270BDC2B6E53612D9FEE53712D9FEEE
:1058A300301903125575DFC3DEC1B21812EC38800C
:1058B300BA5345F712D987C2B65345CF12D98712C7
:1058C300DA9990008AE0C3943CF012546D12552D7E
:1058D30030050302ECC9AB551254FB12575DDBF8DC
:1058E30012E6DD12DB5CD2B612DAEF12E6DD12DB72
:1058F3005CC2B612DAEF301903125575DFCFDECD75
:10590300B21812EC3880C62290009CE0607275D900
:105913000875D80075DA46F5FC75DB4690009EE005
:10592300F5FE43444053447F12D97DD291000000D9
:1059330000000000C29120A1FDD2910000000000F0
:105943000000C29120A1FD12511F1250B4D292D275
:1059530091D29012546DD2DE30CFFDC2CFDFF9DE8B
:10596300F7B294AF53AE54DDEFDCEDC2DE75DA006F
:1059730075DB00C2920000000000C291C290410B8F
:105983001250D8900084E075840FF5C8758400D256
:105993009500C295A3E075840FF5C8758400D2966F
:1059A30000C296D21D12511F43444053447F12D963
:1059B3007DD29100000000000000C29120A1FDD221
:1059C3009100000000000000C29120A1FD1254E3E9
:1059D30030CFFDC292000000C2CFD292DB09D29138
:0E59E300000000AB55C291DFE7DEE5301D107D
:1059F100C21DC293AF53AE54D293DDD6DCD4800A1C
:105A0100D21DAF53AE54DDCADCC820A1FDD2900037
:105A11000000000000C290E550700312ECBF12ECD0
:105A21004212EB3B02ECC912546DD291000000000E
:105A3100000000C29120A1FD900090E0F5576002A6
:105A4100805312511F5344F712D97D43440812D990
:105A51007DAB5530CFFDC292000000C2CFD292DBA8
:105A610009D291000000AB55C291DFE7DEE5AF53EB
:105A7100AE54B294DDDDDCDB20A1FDD2900000004C
:105A8100000000C290E550700312ECBF12EC42120C
:105A9100EB3B02ECC912514A5344F712D97D4344FE
:105AA1000812D97D90008EE0F556FA30980AC29816
:105AB100E599B41B0302ECC9753800753900753AD4
:105AC100007B08E555B405027B0430CFFDC2CFE56C
:105AD100571270BDD29200000000000000C292DB9C
:105AE100E930CFFDC2CF7B03E555B405027B02E56A
:105AF1003A13F53AE53913F539E53813F538DBEFA3
:105B0100D29200000000000000C292E555B40A05DF
:105B110030CFFDC2CFDA0BAA568538368539371218
:105B2100EAACE555B40A0BD2920000000000000077
:105B3100C292DF1CDE1AAF53AE54B294DD12DC10F8
:105B4100E550700312ECBF12EC4212EBB602ECC945
:105B510041ACC21C900090E0F55712546D12552DC6
:105B610030050302ECC985385885395975380075F7
:105B71003900753A00E555B40A13125518E5571264
:105B810070BDD29200000000000000C292125518B0
:055B9100E5571270BD94
:105B9600D29200000000000000C292E555B40A133C
:105BA600125518E5571270BDD29200000000000091
:105BB60000C292125518E5571270BD301C05E55803
:105BC60012D9FED29200000000000000C292E555F4
:105BD600B40A13125518E5571270BDD29200000090
:105BE60000000000C292125518E5571270BDD292FD
:105BF60000000000000000C292E555B40A131255D9
:105C060018E5571270BDD29200000000000000C2D5
:105C160092125518E5571270BD301C05E55912D978
:105C2600FED29200000000000000C292E555B40AC0
:105C36000E125518D29200000000000000C2921207
:105C46005518D29200000000000000C2927B03E5C6
:105C560055B405027B02E53A13F53AE53913F539F1
:105C6600E53813F538DBEFD21C301903125575DF12
:105C760008DE06AF53AE54B294615EC21C12546D78
:105C8600900090E0F55790008EE0F556F9C31304A6
:105C9600F562FAD21B30980AC298E599B41B030242
:105CA600ECC9753800753900753A007B08E555B4BE
:105CB60005027B0430CFFDC2CFE5571270BDD292EC
:105CC60000000000000000C292DBE930CFFDC2CF29
:105CD6007B03E555B405027B02E53A13F53AE5394F
:105CE60013F539E53813F538DBEFD29200000000E2
:105CF600000000C292301C1AE97009E55812D9FE5C
:105D0600A956C21B201B0BDA09E55912D9FEAA6255
:105D1600D21BE555B40A0530CFFDC2CFD908853868
:105D260058853959D21CE555B40A0BD292000000A9
:105D360000000000C292DF08DE06AF53AE54B294F4
:105D4600819BC21C12546DD291000000000000001D
:055D5600C29120A1FD37
:105D5B0012552D30050302ECC98536588537598508
:105D6B00385A85395B7536007537007538007539CB
:105D7B0000E555B40A1112551812E40DD292000029
:105D8B000000000000C29212551812E40D301C05E1
:105D9B00E55812D9FED29200000000000000C2921A
:105DAB00E555B40A1112551812E40DD292000000F9
:105DBB0000000000C29212551812E40D301C05E5CC
:105DCB005912D9FED29200000000000000C292E5E9
:105DDB0055B40A1112551812E40DD29200000000AE
:105DEB00000000C29212551812E40D301C05E55A42
:105DFB0012D9FED29200000000000000C292E555BD
:105E0B00B40A1112551812E40DD2920000000000D2
:105E1B000000C29212551812E40D301C05E55B12FE
:105E2B00D9FED29200000000000000C292E555B4EA
:105E3B000A1112551812E40DD29200000000000056
:105E4B0000C29212551812E40DD29200000000000D
:105E5B000000C292D21C301903125575DF08DE0602
:105E6B00AF53AE54B294A15BC21C12546DD29100CD
:105E7B00000000000000C29120A1FD12552D30053D
:105E8B000302ECC985365885375985385A85395BF5
:105E9B00853A5C75360075370075380075390075B5
:105EAB003A00E555B40A1112551812E488D2920043
:105EBB00000000000000C29212551812E488301C3A
:105ECB0005E55812D9FED29200000000000000C276
:105EDB0092E555B40A1112551812E488D2920000BB
:105EEB000000000000C29212551812E488301C0505
:105EFB00E55912D9FED29200000000000000C292B8
:105F0B00E555B40A1112551812E488D2920000001C
:105F1B0000000000C29212551812E488301C05E5EF
:105F2B005A12D9FED29200000000000000C292E586
:105F3B0055B40A1112551812E488D29200000000D1
:105F4B00000000C29212551812E488301C05E55B64
:105F5B0012D9FED29200000000000000C292E5555B
:105F6B00B40A1112551812E488D2920000000000F6
:105F7B000000C29212551812E488301C05E55C1221
:105F8B00D9FED29200000000000000C292D21C3059
:0B5F9B001903125575DF08DE06AF5336
:105FA600AE54B294C186754C017401124BD612DA06
:105FB6008612755112DA86300CF7C21C12546DD255
:105FC6009100000000000000C29120A1FD12552D95
:105FD60030050302ECC9753900753A00753B00754A
:105FE6006D00756E00756FFF7570FFE555B40A118B
:105FF600125518126DD7D29200000000000000C2A0
:1060060092125518126DD7D29200000000000000BF
:10601600C292E555B40A11125518126DD7D29200E4
:10602600000000000000C292301C05E55812D9FE9F
:10603600125518126DD7D29200000000000000C25F
:1060460092E555B40A11125518126DD7D292000076
:106056000000000000C292125518126DD7D29200AD
:10606600000000000000C292E555B40A111255184E
:10607600126DD7D29200000000000000C292301CC0
:1060860005E55912D9FE125518126DD7D2920000A5
:106096000000000000C2927B03E555B405027B02B6
:1060A600E53B13F53BE53A13F53AE53913F539DBEC
:1060B600EF853958853A5912755312D9FEE555B40C
:1060C6000A0E125518D29200000000000000C2927B
:1060D600125518D29200000000000000C292D21C95
:1060E600301903125575DF08DE06AF53AE54B2946D
:1060F600025FD35345F712D98720230AC2B6534508
:10610600CF12D9878008D2B65345CF12D98712DA73
:1061160099C21C12546DD29100000000000000C20A
:106126009120A1FD12552D30050302ECC920230A4A
:10613600C2B65345CF12D9878008D2B65345CF127F
:10614600D98712DAEF753900753A00753B00E555C7
:10615600B40A11125518126F30D2920000000000D6
:106166000000C292301C05E55812D9FE12551812CD
:106176006F30D29200000000000000C292E555B4D4
:106186000A11125518126F30D2920000000000005A
:1061960000C292301C05E55912D9FE125518126F2D
:1061A60030D29200000000000000C2927B02E5554A
:1061B600B405027B01E53B13F53BE53A13F53AE5F9
:0261C60039138B
:1061C800F539DBEF853958853A59125518D29200BE
:1061D800000000000000C292D2B64345205345EFAC
:1061E80012D98712DAEF753900753A00753B00E568
:1061F80055B40A11125518126F30D29200000000DF
:10620800000000C292301C05E55A12D9FE1255183A
:10621800126F30D29200000000000000C292E555D3
:10622800B40A11125518126F30D292000000000003
:106238000000C292301C05E55B12D9FE12551812F7
:106248006F30D29200000000000000C2927B02E58D
:1062580055B405027B01E53B13F53BE53A13F53AE6
:10626800E53913F539DBEF85395A853A5BE555B4DD
:106278000A0E125518D29200000000000000C292C7
:10628800D21C301903125575DF08DE06AF53AE5421
:10629800B294212A5345F712D98720230AC2B6534C
:1062A80045CF12D9878008D2B65345CF12D9871265
:1062B800DA9912DAA5754C017401124BD612DA86F6
:1062C80012755112DA86300CF7C21C12546DD29135
:1062D80000000000000000C29120A1FD12552D30E1
:1062E800050302ECC920230AC2B65345CF12D98749
:1062F8008008D2B65345CF12D98712DAE67539002D
:10630800753A00753B00756D00756E00756FFF7509
:1063180070FFE555B40A11125518126DD7D29200C4
:10632800000000000000C292301C05E55812D9FE9A
:10633800125518126DD7D29200000000000000C25A
:1063480092E555B40A11125518126DD7D292000071
:106358000000000000C292301C05E55912D9FE1257
:106368005518126DD7D29200000000000000C292AA
:106378007B02E555B405027B01E53B13F53BE53AA5
:1063880013F53AE53913F539DBEF853958853A596C
:10639800125518D29200000000000000C292D2B636
:1063A8004345205345EF12D98712DAEF7539007546
:1063B8003A00753B00E555B40A11125518126F30B2
:1063C800D29200000000000000C292301C05E55A7D
:0963D80012D9FE125518126F30A3
:1063E100D29200000000000000C292E555B40A11EB
:1063F100125518126F30D29200000000000000C246
:1064010092301C05E55B12D9FE125518126F30D27D
:106411009200000000000000C2927B02E555B40525
:10642100027B01E53B13F53BE53A13F53AE53913F8
:10643100F539DBEF85395A853A5B12755312D9FE6E
:10644100E555B40A0E125518D29200000000000062
:1064510000C292D21C301903125575DF08DE06AF57
:1064610053AE54B29441E45345F712D987C2B6539F
:1064710045CF12D98712DA9912EC2E8F518E521212
:10648100EC388F538E54AF51AE5243444053447F46
:1064910012D97DD29100000000000000C29120A11C
:1064A100FDD29100000000000000C29120A1FD1268
:1064B10050D8900084E075840FF5C8758400D2959A
:1064C10000C295A3E075840FF5C8758400D29600CB
:1064D100C296D21D12511FC2221254E3202209C2B8
:1064E100B612DAEFD2228007D2B612DAEFC2223028
:1064F100CFFDC2920000000000C2CFD292DB0BD2CE
:10650100910000000000AB55C291DFD0DECE301DFE
:1065110010C21DC293AF53AE54D293DDBFDCBD8018
:106521000AD21DAF53AE54DDB3DCB120A1FDD29030
:10653100000000000000C290E550700312ECBF1291
:10654100EC4F12EB3B02ECC95345F712D987C2B6A7
:106551005345CF12D98712DA9912EC2E8F518E52F0
:1065610012EC388F538E54AF51AE5212546D9000CD
:1065710090E0F55760028074D291000000000000A5
:1065810000C29120A1FD12511F5344F712D97D433E
:10659100440812D97DAB55C22230CFFDC292000012
:1065A100000000C2CFD292DB18D29100000000009F
:1065B100AB55C291202206D2B6D2228004C2B6C205
:0765C10022DFD6DED4AF5348
:1065C800AE54B294DDCCDCCA20A1FDD2900000000C
:1065D800000000C290E550700312ECBF12EC4F129D
:1065E800EB3B02ECC95344F712D97D43440812D956
:1065F8007D90008EE0F556FA30980AC298E599B475
:106608001B0302ECC9C2B612DAEF753800753900FF
:10661800753A007B04E555B405027B0230CFFDC214
:10662800CFE5571270BDD29200000000000000C2F2
:1066380092DBE97B02E555B405027B01E53A13F5E7
:106648003AE53913F539E53813F538DBEFDA0BAAF3
:106658005685383685393712EAAC30CFFDC2CFD2ED
:106668009200000000000000C292D2B612DAEF7564
:106678003800753900753A007B04E555B405027B8E
:106688000230CFFDC2CFE5571270BDD29200000094
:1066980000000000C292DBE97B02E555B405027BED
:1066A80001E53A13F53AE53913F539E53813F538C4
:1066B800DBEFDA0BAA5685383685393712EAACE5AE
:1066C80055B40A1030CFFDC2CFD2920000000000AE
:1066D8000000C292DF1CDE1AAF53AE54B294DD1232
:1066E800DC10E550700312ECBF12EC4F12EBB6024F
:1066F800ECC9C1005345F712D987C2B65345CF122A
:10670800D98712DA99C21C900090E0F55712546D9F
:1067180012552D30050302ECC9C2B612DAEF7538EE
:1067280000753900753A00E555B40A13125518E595
:10673800571270BDD29200000000000000C29212F1
:106748005518E5571270BDD29200000000000000F5
:10675800C292301C05E55812D9FEE555B40A131249
:106768005518E5571270BDD29200000000000000D5
:0A677800C292125518E5571270BDC9
:10678200301C05E55912D9FED2920000000000002B
:1067920000C2927B02E555B405027B01E53A13F58E
:1067A2003AE53913F539E53813F538DBEF85385812
:1067B200853959125518D29200000000000000C21B
:1067C20092D2B612DAEF753800753900753A00E5E3
:1067D20055B40A13125518E5571270BDD292000033
:1067E2000000000000C292125518E5571270BDD287
:1067F2009200000000000000C292301C05E55A120F
:10680200D9FEE555B40A13125518E5571270BDD2D8
:106812009200000000000000C292125518E55712C3
:1068220070BD301C05E55B12D9FED292000000005B
:10683200000000C292E555B40A0E125518D2920019
:10684200000000000000C2927B02E555B405027B05
:1068520001E53A13F53AE53913F539E53813F53818
:10686200DBEF85385A85395BD21C30190312557516
:10687200DF08DE06AF53AE54B2940267185345F7F1
:1068820012D987C2B65345CF12D98712DA99C21CE0
:1068920012546DD29100000000000000C29120A1AC
:1068A200FD12552D30050302ECC9C2B612DAEF759E
:1068B2003600753700753800753900E555B40A1190
:1068C20012551812E40DD29200000000000000C21E
:1068D20092301C05E55812D9FE12551812E40D30FB
:1068E2001C05E55912D9FED29200000000000000FA
:1068F200C292E555B40A1112551812E40DD2920053
:10690200000000000000C292301C05E55A12D9FEB8
:1069120012551812E40D301C05E55B12D9FED29215
:1069220000000000000000C2928536588537598564
:10693200385A85395B125518D292000000000000C7
:1069420000C292D2B612DAEF75360075370075388A
:1069520000753900E555B40A1112551812E40DD22A
:106962009200000000000000C292301C05E55C129B
:0D697200D9FE12551812E40D301C05E55D2C
:10697F0012D9FED29200000000000000C292E5552D
:10698F00B40A1112551812E40DD292000000000043
:10699F000000C292301C05E55E12D9FE1255181286
:1069AF00E40DD29200000000000000C292301C05DE
:1069BF00E55F12D9FE85365C85375D85385E853992
:1069CF005FE555B40A0E125518D292000000000070
:1069DF000000C292D21C301903125575DF08DE0673
:1069EF00AF53AE54B29401A3C21C12546D5345F76A
:1069FF0012D987C2B65345CF12D98712DA99D291DD
:106A0F0000000000000000C29120A1FD12552D30A2
:106A1F00050302ECC9C2B612DAEF753600753700FE
:106A2F00753800753900753A00E555B40A111255DD
:106A3F001812E488D29200000000000000C29230C9
:106A4F001C05E55812D9FE12551812E488301C05A2
:106A5F00E55912D9FED29200000000000000C29248
:106A6F00E555B40A1112551812E488D292000000AD
:106A7F0000000000C292301C05E55A12D9FE1255D3
:106A8F001812E488301C05E55B12D9FED292000083
:106A9F000000000000C292301C05E55C12D9FE8593
:106AAF00365885375985385A85395B853A5C125582
:106ABF0018D29200000000000000C292D2B612DA83
:106ACF00EF753600753700753800753900753A0067
:106ADF00E555B40A1112551812E488D2920000003D
:106AEF0000000000C292301C05E55D12D9FE125560
:106AFF001812E488301C05E55E12D9FED292000010
:106B0F000000000000C292E555B40A111255181288
:106B1F00E488D29200000000000000C292301C05F1
:106B2F00E55F12D9FE12551812E488301C05E56096
:106B3F0012D9FED29200000000000000C292E5556B
:106B4F00B40A0E125518D29200000000000000C2C5
:106B5F0092301C05E56112D9FE85365D85375E855D
:106B6F00385F853960853A61D21C3019031255752B
:106B7F00DF08DE06AF53AE54B294411B754C01745F
:0C6B8F0001124BD612DA86754D0174011C
:106B9B0012D6DB12DA865345F712D987C2B65345A4
:106BAB00CF12D98712DA9912755112DA86300CF797
:106BBB001275F712DA86300DF7C21C12546DD29192
:106BCB0000000000000000C29120A1FD12552D30E5
:106BDB00050302ECC9C2B612DAEF127551F560303B
:106BEB001C05E56012D9FE125518D2920000000068
:106BFB00000000C292753600753700753800753984
:106C0B0000E555B40A1112551812E40DD29200008A
:106C1B000000000000C292301C05E55812D9FE128C
:106C2B00551812E40D301C05E55912D9FED292000D
:106C3B00000000000000C292E555B40A111255186D
:106C4B0012E40DD29200000000000000C292301C32
:106C5B0005E55A12D9FE12551812E40D301C05E544
:106C6B005B12D9FED29200000000000000C2928598
:106C7B00365885375985385A85395BD2B612DAEFD3
:106C8B001275F7F561753600753700753800753973
:106C9B0000E555B40A0E125518D292000000000000
:106CAB000000C292301C05E56112D9FEE555B40A0D
:106CBB001112551812E40DD29200000000000000D2
:106CCB00C292301C05E55C12D9FE12551812E40D68
:106CDB00301C05E55D12D9FED292000000000000C9
:106CEB0000C292E555B40A1112551812E40DD29256
:106CFB0000000000000000C292301C05E55E12D9B6
:106D0B00FE12551812E40DD2920000000000000094
:106D1B00C292301C05E55F12D9FE85365C85375D66
:106D2B0085385E85395FD21C301903125575DF0823
:106D3B00DE06AF53AE54B29461D7C007C006C00590
:106D4B00C004C003C00275840F759C0075C8FF7525
:106D5B009D0075D8FF758400D291000000000000E3
:106D6B0000C291C2A07D007C007B007A0090008E57
:106D7B0012EC4575840F20A1FD12DB18E5D82DFD13
:106D8B00E5C83CFC50050BEB70010AD291000000EA
:086D9B0000000000C291DFDEE0
:106DA300DEDC758400D2A075840F759CFF758400AA
:106DB300900090E0FFEA13FAEB13FBEC13FCED13E6
:106DC300FDDFF28D368C37D002D003D004D005D04E
:106DD30006D00722C007C006C005C004C003C00216
:106DE300C001C00075840F759C0075C8FF759D00B8
:106DF30075D8FF758400D29100000000000000C226
:106E030091C2A07D007C007B007A0090008E12EC82
:106E13004575840F20A1FDE5D8F92DFDE5C8F83CA3
:106E2300FCD29100000000000000C29150050BEB62
:106E330070010AC3E9956FE895705004896F8870F3
:106E4300C3E9956DE8956E4004896D886EDFC5DEF4
:106E5300C3758400D2A075840F759CFF7584009060
:106E63000090E0FFC3EA13FAEB13FBEC13FCED1302
:106E7300FDDFF1E5392DF539E53A3CF53A500205E8
:106E83003BD000D001D002D003D004D005D006D02F
:106E93000722C007C006C005C004C003C002C082E9
:106EA300C08375840F759C0075C8FF759D0075D8E8
:106EB300FF758400D29100000000000000C291C25F
:106EC300A07D007C007B007A0090008E12EC45755B
:106ED300840F20A1FD12DB18E5D82DFDE5C83CFC8D
:106EE30050050BEB70010AD2910000000000000076
:046EF300C291DFDE8B
:106EF700DEDC758400D2A075840F759CFF75840055
:106F0700900090E0FFC3EA13FAEB13FBEC13FCEDE0
:106F170013FDDFF18D368C37D083D082D002D003BA
:106F2700D004D005D006D00722C007C006C005C0D0
:106F370004C003C00275840F759C0075C8FF759D5A
:106F47000075D8FF758400D2910000000000000092
:106F5700C291C2A07D007C007B007A0090008E1257
:106F6700EC4575840F20A1FD12DB18E5D82DFDE552
:106F7700C83CFC50050BEB70010AD29100000000E1
:106F8700000000C291DFDEDEDC758400D2A07584CC
:106F97000F759CFF758400900090E0FFC3EA13FA19
:106FA700EB13FBEC13FCED13FDDFF1E5392DF539A0
:106FB700E53A3CF53A5002053BD002D003D004D065
:106FC70005D006D00722D29100000000000000C2C1
:106FD70091C007C006C005C00475840F759C007575
:106FE700C8FF759D0075D8FF758400C2A07E007D1F
:106FF700007C007F1075840F20A1FD12DB18E5D8F7
:107007002EFEE5C83DFD50010CD2910000000000A6
:107017000000C291DFE2758400D2A075840F759CD1
:10702700FF7584007F04EC13FCED13FDEE13FEDF08
:10703700F58E368D37D004D005D006D00722D291F1
:1070470000000000000000C291C007C006C005C0D4
:107057000475840F759C0075C8FF759D0075D8FF72
:037067007584002D
:10706A00C2A07E007D007C007F0075840F20A1FDF8
:10707A0012DB18E5D82EFEE5C83DFD50010CD29171
:10708A0000000000000000C291DFE2758400D2A077
:10709A0075840F759CFF7584007F08EC13FCED1353
:1070AA00FDEE13FEDFF58E368D37D004D005D006FF
:1070BA00D0072275840F11C675840022B4000431EA
:1070CA00118033B40104313C802CB40204319E8017
:1070DA0025B403045104801EB40404516D8017B40E
:1070EA00050451D38010B4060471398009B4070429
:1070FA00719F80029105E5382536F538E53935372F
:10710A00F5395002053A22759C0075C8FF759D0035
:10711A0075D8FFC2A020A1FD12DB1885C83685D814
:10712A0037D29100000000000000C291D2A0759CE5
:10713A00FF22D29100000000000000C291C007C0E7
:10714A0006C005C004759C0075C8FF759D0075D8FA
:10715A00FFC2A07E007D007C007F0220A1FD12DB21
:10716A0018E5D82EFEE5C83DFD50010CD29100006D
:10717A000000000000C291DFE2D2A0759CFFEC1370
:10718A00FCED13FDEE13FE8E368D37D004D005D0FC
:10719A0006D00722D29100000000000000C291C070
:1071AA0007C006C005C004759C0075C8FF759D0020
:1071BA0075D8FFC2A07E007D007C007F0420A1FD5F
:1071CA0012DB18E5D82EFEE5C83DFD50010CD29120
:0971DA0000000000000000C29159
:1071E300DFE2D2A0759CFF7F02EC13FCED13FDEEF2
:1071F30013FEDFF58E368D37D004D005D006D007C9
:1072030022D29100000000000000C291C007C00616
:10721300C005C004759C0075C8FF759D0075D8FF37
:10722300C2A07E007D007C007F0820A1FD12DB1838
:10723300E5D82EFEE5C83DFD50040C12DB18D291B3
:1072430000000000000000C291DFDFD2A0759CFFA8
:107253007F03EC13FCED13FDEE13FEDFF58E368D8D
:1072630037D004D005D006D00722D2910000000009
:10727300000000C291C007C006C005C004759C0091
:1072830075C8FF759D0075D8FFC2A07E007D007C88
:10729300007F1020A1FD12DB18E5D82EFEE5C83DC6
:1072A300FD50010CD29100000000000000C291DFEC
:1072B300E2D2A0759CFF7F04EC13FCED13FDEE13EB
:1072C300FEDFF58E368D37D004D005D006D00722E9
:1072D300D29100000000000000C291C007C006C0A8
:1072E30005C004759C0075C8FF759D0075D8FFC265
:1072F300A07E007D007C007F2020A1FD12DB18E52D
:10730300D82EFEE5C83DFD50010CD29100000000CF
:10731300000000C291DFE2D2A0759CFF7F05EC1351
:10732300FCED13FDEE13FEDFF58E368D37D004D062
:0573330005D006D007A3
:1073380022D29100000000000000C291C007C006E0
:10734800C005C004759C0075C8FF759D0075D8FF01
:10735800C2A07E007D007C007F4020A1FD12DB18CA
:10736800E5D82EFEE5C83DFD50010CD29100000085
:1073780000000000C291DFE2D2A0759CFF7F06ECFE
:1073880013FCED13FDEE13FEDFF58E368D37D004BA
:10739800D005D006D00722D29100000000000000DE
:1073A800C291C007C006C005C004759C0075C8FF1F
:1073B800759D0075D8FFC2A07E007D007C007F808F
:1073C80020A1FD12DB18E5D82EFEE5C83DFD5001D1
:1073D8000CD29100000000000000C291DFE2D2A0B0
:1073E800759CFF7F07EC13FCED13FDEE13FEDFF534
:1073F8008E368D37D004D005D006D00722D2910022
:10740800000000000000C291C007C006C005C0040B
:10741800759C0075C8FF759D0075D8FFC2A07E00D9
:107428007D007C007F0020A1FD12DB18E5D82EFE30
:10743800E5C83DFD50010CD291000000000000009D
:10744800C291DFE2D2A0759CFF7F08EC13FCED131C
:10745800FDEE13FEDFF58E368D37D004D005D0064D
:10746800D00722C004C005C006C00775840F759CEC
:107478000075C8FF759D0075D8FF758400D291000E
:10748800000000000000C291C2A07E207F00753677
:1074980000753700753800753900756D00756E0018
:0F74A800756FFF7570FF75840275CA0C75CC0C7B
:1074B70075CBFF75CDFFD2CAC2CF75840230CFFD21
:1074C700C2CF75840FE5D8FD2536F536E5C8FCD261
:1074D7009100000000000000C2913537F5375008D1
:1074E7000538E53870020539C3ED956FEC95705096
:1074F700048D6F8C70C3ED956DEC956E40048D6DAA
:107507008C6EDFB6DEB4758400D2A075840F759CCF
:10751700FF75840075840275CA3875CC3875CBFF42
:1075270075CDFFC2CA758400C37F0DE53913F539E0
:10753700E53813F538E53713F537E53613F536DF54
:10754700EAD007D006D005D00422916BE56DC3942D
:1075570064E56E94A6400302758DE56FC3949CE5C0
:10756700709459500302758DE56DC394EBE56E94E5
:1075770081500EE56FC39414E570947E4003027545
:10758700C3D20CE54C22E54CB4000280F4C007FFDF
:10759700C20C14F54CB4080E7401124CB4740012EA
:1075A7004CC47407800FB4070C7400124CB47400F9
:1075B700124CC47407124BD6EFD00722E54CB40621
:1075C7000280BEC007FFC20C04F54CB4090C74015D
:1075D700124CB4124CC47407800FB4080C74011217
:1075E7004CB47400124CC47407124BD6EFD0072268
:1075F700D2B612DACB916BE56DC39464E56E94A6AF
:107607004003027638E56FC3949CE57094595003A4
:10761700027638E56DC394EBE56E9481500EE56F05
:10762700C39414E570947E400302766ED20DE54D47
:1076370022E54DB4010280F4C007FFC20D14F54DD9
:10764700B4080E740112D710740012D7257407807E
:107657000FB4070C740012D710740012D7257407E3
:1076670012D6DBEFD00722E54DB4090280BEC00772
:10767700FFC20D04F54DB4090C740112D71012D7CF
:10768700257407800FB4080C740112D71074001208
:10769700D725740712D6DBEFD007229000AC740011
:1076A700F0A3F0C29478007900900078E0FFA3E09F
:1076B700FE900088E06002D1FC900084E0FBA3E02C
:1076C700FA90000EE0FDA3E0FCF109D1FC900086E2
:1076D700E0FBA3E0FAF109D1FC900086E0FBA3E010
:1076E700FAF109D1FC7B647A00F10943440412D909
:1076F7007D12D9FE22EE64FFFEEF64FF04FF7001E6
:107707000E225344EF12D97D43450212D987EB600D
:017717000170
:107718000AED75840FF5C8758400D29500C295EC02
:1077280075840FF5C8758400D29600C296C293007E
:10773800D2935345FD12D987E975840FF5C875842E
:1077480000D29500C295E875840FF5C8758400D2FB
:107758009600C296C29300D29309E9700108534477
:10776800FB12D97D5344FD12D97D43440212D97DC1
:1077780043440412D97D43450212D987ED2FFDEC0D
:107788003EFCDB8DDA8B2212559E53443F12D97D85
:107798007564009000CE12EC458507058506041235
:1077A800EC2E8F678E6890015AE0F560A3E0F561D2
:1077B80090015CE0F562A3E0F563E56075840FF580
:1077C800C8758400D29500C295E56175840FF5C827
:1077D800758400D29600C296C29300D29390008A14
:1077E800E0B400028040B40103027983B4030302C9
:1077F8007A86B40403027A86B405024186B40D027F
:10780800613CB40E02613CB40F02613CB4140281C5
:1078180055B41502A1C8B41702C1B6B41802C1B64E
:10782800B41902C1B62243444053447F12D97DD2D1
:107838009100000000000000C29120A1FDD291003B
:10784800000000000000C29120A1FD12511F7584A4
:107858000FD2A0759CFFD2A20000C2A2E562F5C8B3
:1078680000D29500C295E563F5C800D29600C2968D
:10787800C29300D293C2A0759C0075C8FF759D0085
:1078880075D8FF7584001254E330CFFDC2CFD29172
:1078980000000000000000C291DFEEDEECDD04DC39
:1078A80002214575840FD2A20000C2A2D2A0759C05
:1078B800FFE560F5C800D29500C295E561F5C800FE
:1078C800D29600C296C29300D293C2A0759C00754E
:1078D800C8FF759D0075D8FF758400AF67AE681244
:1078E80054E330CFFDC2CFD2910000000000000069
:1078F800C291DFEEDEECDD04DC02804175840FD23C
:10790800A20000C2A2D2A0759CFFE562F5C800D211
:107918009500C295E563F5C800D29600C296C29359
:1079280000D293C2A0759C0075C8FF759D0075D8DC
:0B793800FF758400AF67AE681254E3D7
:10794300019120A1FDD290000000000000C290D25E
:10795300A075840F759CFF758400E550700312ECCD
:10796300BFE564601275840FD2F8758400E5651273
:10797300D9FEE56612D9FE12EC4212EB3B02ECC9CA
:10798300D2A20000C2A2E56275840FF5C875840017
:10799300D29500C295E56375840FF5C8758400D24E
:1079A3009600C2965344F712D97D43440812D97DF9
:1079B30012546D30980AC298E599B41B0302ECC9BE
:1079C30030CFFDC2CF126E9512EAACDFE6DEE4DD06
:1079D30004DC024160C29300D293D2A20000C2A28F
:1079E300E56075840FF5C8758400D29500C295E5EE
:1079F3006175840FF5C8758400D29600C296C29350
:107A030000D293AF67AE6830980AC298E599B41B69
:107A13000302ECC930CFFDC2CF126E9512EAACDF80
:107A2300E6DEE4DD04DC028034C29300D293D2A20A
:107A33000000C2A2E56275840FF5C8758400D29573
:107A430000C295E56375840FF5C8758400D296006E
:107A5300C296C29300D293AF67AE6821B6E5507069
:107A63000312ECBFE564601275840FD2F8758400CD
:107A7300E56512D9FEE56612D9FE12EC4212EBB6A9
:107A830002ECC9D2A20000C2A2E56275840FF5C858
:107A9300758400D29500C295E56375840FF5C875AA
:107AA3008400D29600C29612546D12EC2E1254FB2F
:107AB30030050302ECC912E6DD12DB5CDFEFDEED1D
:107AC300DD04DC028070C29300D293D2A20000C214
:107AD300A2E56075840FF5C8758400D29500C29540
:107AE300E56175840FF5C8758400D29600C29612BD
:107AF300EC2E1254FB30050302ECC912E6DD12DB57
:107B03005CDFEFDEEDDD04DC02802BC29300D29359
:107B1300D2A20000C2A2E56275840FF5C875840085
:107B2300D29500C295E56375840FF5C8758400D2BC
:107B33009600C29641AD02ECC95345F712D987C2EC
:107B4300B65345CF12D98712DA99D2A20000C2A246
:107B5300E56275840FF5C8758400D29500C295E57A
:107B63006375840FF5C8758400D29600C29653449A
:107B7300F712D97D43440812D97D12546D90008ABF
:107B8300E0C3940AF012EC2E1254FB30050302EC0E
:107B9300C9C2B65345CF12D98712DAEF12E6DD1206
:107BA300DB5CD2B64345205345EF12D98712DAEF97
:067BB30012E6DD12DB5CAE
:107BB900DFD0DECEDD04DC028152C29300D293D243
:107BC900A20000C2A2E56075840FF5C8758400D2D1
:107BD9009500C295E56175840FF5C8758400D29644
:107BE90000C29612EC2E1254FB30050302ECC9C2F6
:107BF900B65345CF12D98712DAEF12E6DD12DB5CF4
:107C0900D2B64345205345EF12D98712DAEF12E66F
:107C1900DD12DB5CDFD0DECEDD04DC02802BC2931B
:107C290000D293D2A20000C2A2E56275840FF5C802
:107C3900758400D29500C295E56375840FF5C87502
:107C49008400D29600C296618802ECC95345F712A6
:107C5900D987C2B65345CF12D98712DA9953443F0F
:107C690012D97DD29100000000000000C29120A12C
:107C7900FD12511F75840FD2A0759CFFD2A200007E
:107C8900C2A2E562F5C800D29500C295E563F5C8C0
:107C990000D29600C296C29300D293C2A0759C00EE
:107CA90075C8FF759D0075D8FF7584001254E330BF
:107CB900CFFDC2CFD29100000000000000C2912088
:107CC900A1FDD2B630CFFDC2CFD291000000000095
:107CD9000000C29120A1FDC2B6DFD4DED2DD04DCF2
:107CE90002A1A075840FD2A20000C2A2D2A0759CE5
:107CF900FFE560F5C800D29500C295E561F5C800B9
:107D0900D29600C296C29300D293C2A0759C007508
:107D1900C8FF759D0075D8FF758400AF67AE6812FE
:107D290054E330CFFDC2CFD2910000000000000023
:107D3900C29120A1FDD2B630CFFDC2CFD2910000B1
:107D49000000000000C29120A1FDC2B6DFD4DED23E
:107D5900DD04DC02804175840FD2A20000C2A2D2E8
:107D6900A0759CFFE562F5C800D29500C295E56350
:107D7900F5C800D29600C296C29300D293759C00B2
:107D890075C8FF759D0075D8FFC2A0758400AF67DF
:107D9900AE681254E381B820A1FDD2900000000022
:107DA9000000C290D2A075840F759CFF758400E510
:107DB90050700312ECBF12EC4F12EB3B02ECC953AB
:107DC90045F712D987C2B65345CF12D98712DA9926
:107DD900D2A20000C2A2E56275840FF5C8758400BD
:107DE900D29500C295E56375840FF5C8758400D2F4
:107DF9009600C2965344F712D97D43440812D97D9F
:107E090012546D30980AC298E599B41B0302ECC963
:107E190030CFFDC2CF12DE36DFE9DEE7DD04DC025A
:0F7E2900807BC29300D293D2A20000C2A2E56078
:107E380075840FF5C8758400D29500C295E5617503
:107E4800840FF5C8758400D29600C296AF67AE68F5
:107E580030980AC298E599B41B0302ECC930CFFDEB
:107E6800C2CF12DE36DFE9DEE7DD04DC02802FC296
:107E78009300D293D2A20000C2A2E56275840FF5E6
:107E8800C8758400D29500C295E56375840FF5C85E
:107E9800758400D29600C296AF67AE68C10CE550F3
:107EA800700312ECBF12EC4F12EBB602ECC953454B
:107EB800F712D987C2B65345CF12D98712DA99D2A9
:107EC800A20000C2A2E56275840FF5C8758400D2CD
:107ED8009500C295E56375840FF5C8758400D29640
:107EE80000C2965344F712D97D43440812D97D1233
:107EF800546D90008AE0C39414F012EC2E1254FBD7
:107F080030050302ECC912DE1412DB5C855136859C
:107F1800523785533885543985553A12DB5CDFDD95
:107F2800DEDBDD04DC02E1BCC29300D293D2A20006
:107F380000C2A2E56075840FF5C8758400D295006B
:107F4800C295E56175840FF5C8758400D29600C2A4
:107F580096C29300D29312EC2E1254FB3005030202
:107F6800ECC912DE1412DB5C855136855237855315
:107F78003885543985553A12DB5CDFDDDEDBDD04FC
:107F8800DC028030C29300D293D2A20000C2A2E5E4
:107F98006275840FF5C8758400D29500C295E563B3
:107FA80075840FF5C8758400D29600C296C29300F6
:107FB800D293E10202ECC912559E53443F12D97D77
:107FC8007564017400124E6A9000CE12EC45850764
:107FD8000585060412EC2E8F678E6890015AE0F52D
:107FE80060A3E0F56190015CE0F562A3E0F563E56C
:107FF8006075840FF5C8758400D29500C295E56157
:1080080075840FF5C8758400D29600C296C2930095
:10801800D29390008AE0B40A028007B40B0201AA46
:1080280001C743444053447F12D97DD291000000D8
:1080380000000000C29120A1FDD2910000000000C4
:108048000000C29120A1FD126FCD1251A975840FB5
:10805800C2F875840012DAB1126FCD85366585379E
:108068006612511F75840FD2A0759CFFD2A2000022
:0C807800C2A2E562F5C800D29500C295D6
:10808400E563F5C800D29600C296C29300D293C2AB
:10809400A0759C0075C8FF759D0075D8FF75840098
:1080A4001254E3027891126FCD1251A975840FC254
:1080B400F875840012DAB1126FCD8536658537669E
:1080C400027983126FCD1251A975840FC2F8758499
:1080D4000012DAB1126FCD853665853766D2A200FB
:1080E40000C2A2E56275840FF5C8758400D29500BC
:1080F400C295E56375840FF5C8758400D29600C2F5
:1081040096C29300D2935344F712D97D4344081284
:10811400D97D12546DE56512D9FEE56612D9FE12B9
:10812400EC2E1254FB30050302ECC9126FCD900003
:108134009EE060335336FEE53724E640028006E5D0
:1081440037241A502243360175840FD2F8758400FF
:1081540012DACB12DACB12DACB12DACB12DACB7513
:10816400840FC2F87584001251A9DFB6DEB4DD04B1
:10817400DC024121D2A20000C2A2E56075840FF5A1
:10818400C8758400D29500C295E56175840FF5C861
:10819400758400D29600C296C29300D29312EC2E3C
:1081A4001254FB30050302ECC9126FCD90009EE01F
:1081B40060335336FEE53724E640028006E5372473
:1081C4001A502243360175840FD2F875840012DAEE
:1081D400CB12DACB12DACB12DACB12DACB75840FEC
:1081E400C2F87584001251A9DFB6DEB4DD04DC02E6
:1081F400802BD2A20000C2A2E56275840FF5C87577
:108204008400D29500C295E56375840FF5C8758422
:1082140000D29600C296C29300D293212375840F94
:10822400D2F875840002ECC97400124E6A740A1202
:108234004BD612DAB175840FC2F875840012DAB124
:1082440090000E124FB312546D126FCD85366585B2
:1082540037661254FB126FCD75840FD2F875840003
:10826400E56512D9FEE56612D9FE1251A974011210
:108274004BD6C2CAC2CFC2AFC2AD2290001EE0F537
:1082840032A3E0F53312507B22900020E0F532A3B4
:10829400E0F53312508E22900022E0F532A3E0F58F
:1082A400331250A1222222E02DFDA3E03CFCA3E0E6
:1082B4003BFBF532A3E03AFAF53322C000C001C01B
:1082C40006C007E0F8A3E0F9A3E0FEA3E0FFC3EDD6
:1082D40098FDEC99FCEB9EFBF532EA9FFAF533D05E
:1082E40007D006D001D0002212559E53443F12D924
:1082F4007D7D007C0090000EE0FBF532A3E0FAF5F2
:1083040033124FD890015A51AB12EC4290008AE0DC
:108314009409400261D69000DE719B1254FB300533
:108324000302ECC99000E6719B12E517124FD88541
:108334003662853763853864853965853A66900089
:108344008CE0B4000790007451AB800A90000EE0FA
:10835400F532A3E0F5331254FB30050302ECC99067
:1083640000DE719B12E517129DDF124FD812DB5C01
:1083740085623685633785643885653985663A90C4
:10838400008CE0B4000312DB5C90015A51ABDF05B2
:10839400DE0302ECC98084C007C006C005C004C067
:1083A40003AF82AE839000D6AD82AC837B088F820C
:1083B4008E83E0A3AF82AE838D828C83F0A3AD82E3
:1083C400AC83DBEA12546DD003D004D005D006D0C0
:1083D40007225345F712D987C2B65345CF12D9871E
:1083E40012DA9990008AE0C39414F09000DE719B35
:1083F4001254FB30050302ECC99000E6719B12DBBA
:108404007D124FD885366785376885386985396A1E
:10841400853A6B85516C85526D85536E85546F8595
:10842400557090008CE0B4000790007451AB800A42
:1084340090000EE0F532A3E0F5331254FB3005034F
:1084440002ECC99000DE719B12DB7D129DDF124F9E
:10845400D812DB5C855136855237855338855439BB
:1084640085553A12DB5C90008CE0B40024856736B5
:10847400856837856938856A39856B3A12DB5C858E
:108484006C36856D37856E38856F3985703A12DBA9
:108494005C90015A51ABDF05DE0302ECC961F412B2
:1084A400559E53443F12D97D5344F712D97D43441A
:1084B4000812D97D7D007C0090000EE0FBF532A30C
:1084C400E0FAF533124FD8900084E0F55B90008811
:1084D400E0C2186002D21890008AE094095004C2E5
:1084E40015801BD2155345F712D987C2B65345CF11
:1084F40012D98712DA9990008AE0C39414F01254C6
:108504006D9000CE12EC458F628E6312EC421254D1
:10851400FB30050302ECC930180790007451AB809E
:0F8524000590015A51AB155BE55B70E290008446
:10853300E0F55B20151D90008AE0B40108126E95EA
:1085430012EAAC800312E517124FD8129DDF12DB3B
:108553005C802712DB7D124FD8129DDF90008AE0EA
:10856300B40102801512DB5C855136855237855381
:108573003885543985553A12DB5CDF27DE25B2187E
:10858300D56222D5631FE550700312ECBF90008AB9
:10859300E0B4010C12EC3830150312EC3D12EBB6CB
:1085A30002ECC9A112A10F1250D890009CE075846F
:1085B3000FF5C8758400D29500C295A3E075840FAA
:1085C300F5C8758400D29600C296C29300D293D2A6
:1085D300A20000C2A2900012E0F567A3E0F5689044
:1085E3000014E0F565A3E0F5661256FF90009EE0E7
:1085F300F551F89000A0E0F552D226753A00753B8C
:1086030000753C00C2259000CEE0B40202D225C220
:108613001BC21DD22490008AE07005C22412514A65
:1086230012546D90008612EC8F90008412EC451268
:1086330054FB30050302ECC9126E95C29200000090
:1086430000000000D292E53A2536F53AE53B35378E
:10865300F53B5002053CD85FA85130260FC22630A7
:108663002408301B52E53812D9FE804BA952C3E5CA
:108673003C13F53CE53B13F53BE53A13F53AD9EFEB
:10868300D226302410301B05E53912D9FE853A383D
:10869300853B398009853A36853B3712EAACD21BD4
:0F86A300753A00753B00753C00201D05125714F9
:1086B2008003125738125003DF2FDE2DC29300D2EF
:1086C20093DD24DC2230240AE53812D9FEE5391282
:1086D200D9FE302506C225D21DC12620240612EC61
:1086E2004212EBB602ECC9C12CC13212559E534460
:1086F2003F12D97D7D007C0090000EE0FBF532A395
:10870200E0FAF533124FD812546D12EC4290008AFF
:10871200E0B40002803FB4010302881CB4020302E9
:10872200887AB403030288B4B404030288B4B4059B
:10873200030288B4B414030288F7B41503028A1B37
:10874200B41603028A84B41703028AE1B41803023E
:108752008AE1028AE1D29100000000000000C29189
:1087620020A1FD90015A51AB124FD812511F125441
:108772006D30CFFDC2CFD29100000000000000C2D8
:108782009120A1FD12DB17D2A075840F759CFF7595
:10879200840090007451AB124FD8C2A075840F753B
:1087A2009C0075C8FF759D0075D8FF75840030CF99
:1087B200FDC2CFD29100000000000000C29120A1B2
:1087C200FD12DB17D2A075840F759CFF7584009093
:1087D200015A51AB124FD8C2A075840F759C007517
:1087E200C8FF759D0075D8FF758400DF2ADE28203A
:1087F200A1FDD290000000000000C290D2A07584BA
:108802000F759CFF758400E550700312ECBF12ECEB
:108812004F12EB3B02ECC90287735344F712D97D26
:1088220043440812D97D90015A1282AB124FD830BC
:10883200980AC298E599B41B0302ECC930CFFDC275
:10884200CF126E9512EAAC9000741282AB124FD81E
:1088520030CFFDC2CF126E9512EAAC90015A12824D
:10886200AB124FD8DFC9DEC7E550700312ECBF125E
:10887200EC4F12EBB602ECC990015A1282AB124FC6
:10888200D81254FB30050302ECC9126E95900074A5
:0C8892001282AB124FD81251A91254FBF5
:10889E00126E9590015A1282AB124FD81251A9DF67
:1088AE00D4DED202ECC912E6DD90015A1282AB126E
:1088BE004FD81254FB30050302ECC912E6DD9000CE
:1088CE00741282AB124FD812DB5C1254FB300503CC
:1088DE0002ECC912E6DD90015A1282AB124FD81289
:1088EE00DB5CDFCEDECC02ECC95345F712D987C272
:1088FE00B65345CF12D98712DA99D29100000000F3
:10890E00000000C29120A1FD90015A1282AB124FBD
:10891E00D812511F12546D30CFFDC2CFC2B653457F
:10892E00CF12D98712DAEFD29100000000000000BA
:10893E00C29120A1FDD2B65345CF12D98712DAEFDC
:10894E00D29100000000000000C29120A1FD0000A5
:10895E00000000D2A075840F759CFF7584009000F6
:10896E00741282AB124FD8C2A075840F759C00751D
:10897E00C8FF759D0075D8FF75840030CFFDC2CF3E
:10898E00C2B65345CF12D98712DAEFD2910000004A
:10899E0000000000C29120A1FDD2B65345CF12D9DE
:1089AE008712DAEFD29100000000000000C2912081
:1089BE00A1FD0000000000D2A075840F759CFF750C
:1089CE00840090015A1282AB124FD8C2A075840F48
:1089DE00759C0075C8FF759D0075D8FF758400DF06
:1089EE002ADE2820A1FDD290000000000000C290D7
:1089FE00D2A075840F759CFF758400E5507003122C
:108A0E00ECBF12EC6212EB3B02ECC921255345F789
:108A1E0012D987C2B65345CF12D98712DA99534469
:108A2E00F712D97D43440812D97D90015A1282ABB8
:108A3E00124FD830980AC298E599B41B0302ECC9BC
:108A4E0030CFFDC2CF12DE369000741282AB124FC1
:108A5E00D830CFFDC2CF12DE3690015A1282AB1241
:108A6E004FD8DFCFDECDE550700312ECBF12EC62B3
:108A7E0012EBB602ECC95345F712D987C2B653456D
:108A8E00CF12D98712DA9990015A1282AB124FD8AF
:108A9E001254FB30050302ECC912DF7790007412FA
:108AAE0082AB124FD81251A98551368552371251C9
:0A8ABE00A91254FB12DF7790015A51
:108AC8001282AB124FD81251A985513685523712EE
:108AD80051A9DFC2DEC002ECC95345F712D987C2DB
:108AE800B65345CF12D98712DA991254FB300503D1
:108AF80002ECC99000741282AB124FD81254FB30AA
:108B0800050302ECC99000741282BF124FD890007E
:108B18008AE0C39414F012DB7D90015A1282AB12E2
:108B28004FD81254FB30050302ECC912DB7D9000CC
:108B3800741282AB124FD812DB5C855136855237DE
:108B480085533885543985553A12DB5C1254FB300D
:108B5800050302ECC912DB7D90015A1282AB124F59
:108B6800D812DB5C855136855237855338855439A0
:108B780085553A12DB5CDFAADEA802ECC9C29490E4
:108B88000086E0F9A3E0F812EC2E3098FDC298AB0D
:108B9800993098FDC298AA9971B0DFEEDEEC434493
:108BA8000412D97D12D9FE22EB75840FF5C875849D
:108BB80000D29500C295EA75840FF5C8758400D275
:108BC8009600C296C29300D2935345FD12D987E905
:108BD80075840FF5C8758400D29500C295E8758430
:108BE8000FF5C8758400D29600C296C29300D2933E
:108BF80009E97001085344FB12D97D5344FD12D989
:108C08007D43440212D97D43440412D97D43450271
:108C180012D9872212559EC20B90008AE06002D2B8
:108C28000BE599C29812EC42C006C0079000D6E046
:108C3800C394D8A3E094FF401943444053447F129F
:108C4800D97DD29100000000000000C29120A1FD52
:108C5800800653443F12D97DB12712552D300503A4
:108C680002ECC9300B0D12DA2D600812DA2D124C05
:108C7800D480B59000B2E0603C7400124CB474002B
:0C8C8800124CC475320075338012500984
:108C940012DAA512520F12DA2D600B12DA2D124CD1
:108CA400D412DAA580ED12DA2DF53212DA2DF5336D
:108CB40012500912DA2D124CD4C000C001C002C0F7
:108CC40003900012E0FAA3E0FB900014E0F8A3E0A4
:108CD400F9900074E028F8A3E039F9900076E03ABE
:108CE400FAF532A3E03BFBF533125003900012EA8D
:108CF400F0A3EBF0900014E8F0A3E9F0D003D00265
:108D0400D001D000129DDF12552D30050302ECC9AD
:108D140012DA2D12DAA5D007D006DF05DE0302EC45
:108D2400C9813078517914760008D9FB9000A8E005
:108D3400F53C1250D890009CE075840FF5C87584FA
:108D440000D29500C295A3E075840FF5C875840020
:108D5400D29600C296C29300D293D2A20000C2A2BD
:108D64009000A6E0FAFBA3E06001FB9000CE12ECB9
:108D74007B90008412EC458F658E6612546D9000D2
:108D840090E0703212511F30CFFDC29200000000FB
:108D940000C2CFD292DB0BD29100000000008A0304
:108DA400C291DFE3DEE1C293856507856606D2934F
:108DB400D9D5D8D3802A30CFFDC29200000000005C
:108DC400C2CFD292DB08126D4512EAAC8A03DFE609
:108DD400DEE4C293856507856606D293D9D8D8D6D2
:108DE400D290000000000000C29075840F759CFFB3
:108DF40075840074FF75840FF5C8758400D29500DE
:028E0400C29515
:108E0600747F75840FF5C8758400D29600C296C229
:108E16009300D293D2A20000C2A21250B412517390
:108E2600D2B743442012D97D900090E0700AD290C8
:108E3600000000000000C29090008CE06017FB90DC
:108E460000AA12EC45D290000000000000C290DF9C
:108E5600F4DEF2DBEA90009EE0F567A3E0F56890A9
:108E660000A0E0F569A3E0F56A9000A2E0F56BA327
:108E7600E0F56C9000A4E0FDA3E0FC79FF78FF909C
:108E860000A6E0FB7A00756D00756E00756FFF75C4
:108E960070FF90008612EC4575840F759C0075C8AE
:108EA600FF759D0075D8FF758400C2B75344DF1265
:108EB600D97DC006C00775840FAFD8AEC8758400CB
:108EC600C3EF956FEE957050048F6F8E70C3EF955C
:108ED6006DEE956E40048F6D8E6EE92BF9E83AF8CB
:108EE600C3E99DE89C4008C3E99DF9E89CF800C3E6
:108EF600E99567E895684014C3E99569E8956A407D
:108F060027C3E9956BE8956C403A8054E5512FF5F7
:108F160051E5523EF55250620553E553705C0554D7
:108F2600E554705605558052E5562FF556E5573EE1
:108F3600F55750460558E55870400559E559703AB9
:068F4600055A8036E55BD0
:108F4C002FF55BE55C3EF55C502A055DE55D702414
:108F5C00055EE55E701E055F801AE5602FF560E525
:108F6C00613EF561500E0562E56270080563E563CC
:108F7C0070020564D290000000000000C290D0077F
:108F8C00D006DF3CDE3AD2B743442012D97D75843B
:108F9C000F759CFF758400E53C14F53C6002A1360E
:108FAC0078517914E612D9FE08D9F9E56D12D9FE7B
:108FBC00E56E12D9FEE56F12D9FEE57012D9FE22CC
:108FCC00C1B812559EC22790009EE0600812CE9642
:108FDC00D22712DA9953443F12D97D5344F712D950
:108FEC007D43440812D97DC21BC21A90008AE0B49A
:108FFC000002805012546D90008AE0B40102215599
:10900C00B402022185B4030221FFB4040221FFB48F
:10901C00050221FFB40D024146B40E024146B40FC5
:10902C00024146B4140201BFB4150241C2B4160287
:10903C00611EB4170261E3B4180261E3B419026152
:10904C00E302ECC943444053447F12D97DD29100D2
:10905C00000000000000C29120A1FDD29100000090
:10906C0000000000C29120A1FD12511F12EC42120F
:10907C0054E3302702D2DE30CFFDC2CFD2910000B4
:10908C000000000000C291DFEEDEEC20A1FDD290CA
:10909C00000000000000C290D2A075840F759CFFE8
:1090AC00758400E550700312ECBF12EC4212EB3BDE
:1090BC0002ECC95345F712D987C2B65345CF12D922
:1090CC008712DA9943444053447F12D97DD29100E0
:1090DC00000000000000C29120A1FDD29100000010
:1090EC0000000000C29120A1FD12511F12EC42128F
:1090FC0054E330CFFDC2CFC2B612DAEFD2910000EA
:10910C000000000000C29120A1FDD2B612DAEFD20D
:0D911C009100000000000000C29120A1FDA4
:10912900DFD3DED120A1FDD290000000000000C2F3
:1091390090D2A075840F759CFF758400E55070036B
:1091490012ECBF12EC4F12EB3B02ECC912EC4230AD
:109159002702D2DE30980AC298E599B41B0302ECC3
:10916900C930CFFDC2CF126E9512EAACDFE6DEE45C
:1091790012ECBF12EC4212EBB602ECC9C21C30274A
:1091890002D2DE12552D30050302ECC9301B233003
:109199001A2074FE12D9FE74FE12D9FEE599C298FE
:1091A90012DA2DF53212DA2DF53312500912DAB12D
:1091B900C21A1254FB30050302ECC9753900753A1D
:1091C90000753B00126F30301C05E53612D9FE12CE
:1091D9006F30301C05E53712D9FED21CC3E53B13AD
:1091E900F53BE53A13F53AE53913F539853936850D
:1091F9003A37D21B808D302702D2DE12552D300529
:109209000302ECC9301B23301A2074FE12D9FE74F4
:10921900FE12D9FEE599C29812DA2DF53212DA2D2D
:10922900F53312500912DAB1C21A1254FB30050390
:1092390002ECC912E6DD12DB5CD21B80BE5345F796
:1092490012D987C2B65345CF12D98712DA99C21CEF
:1092590090008AE0C3940AF012552D30050302EC00
:10926900C9301B23301A2074FE12D9FE74FE12D99C
:10927900FEE599C29812DA2DF53212DA2DF533127C
:10928900500912DAB1C21A1254FB30050302ECC9B3
:10929900C2B65345CF12D98712DAE612E6DD12DBE0
:1092A9005CD2B64345205345EF12D98712DAE6124C
:1092B900E6DD12DB5CD21B809F5345F712D987C2CA
:0A92C900B65345CF12D98712DA9987
:1092D3005344F712D97D43440812D97D12EC42302E
:1092E300980AC298E599B41B0302ECC930CFFDC2BA
:1092F300CFC2B612DAEF126E9512EAACD2B612DA18
:10930300EF126E9512EAACDFD6DED4E5507003128D
:10931300ECBF12EC4F12EBB602ECC95345F712D96E
:1093230087C2B65345CF12D98712DA99C21C125598
:109333002D30050302ECC9301B23301A2074FE12B2
:10934300D9FE74FE12D9FEE599C29812DA2DF532D0
:1093530012DA2DF53312500912DAB1C21A1254FB84
:1093630030050302ECC9C2B612DAEF753900753A5B
:1093730000753B00126F30301C05E55112D9FE1207
:109383006F30301C05E55212D9FEC3E53B13F53BA4
:10939300E53A13F53AE53913F539853951853A52EA
:1093A300D2B612DAEF753900753A00753B00126FC9
:1093B30030301C05E55312D9FE126F30301C05E521
:1093C3005412D9FEC3E53B13F53BE53A13F53AE5F1
:1093D3003913F539853953853A54D21CD21B61317F
:1093E3005345F712D987C2B65345CF12D98712DA3C
:1093F3009990008AE0C39414F012552D30050302AE
:10940300ECC9301B23301A2074FE12D9FE74FE12ED
:10941300D9FEE599C29812DA2DF53212DA2DF53319
:1094230012500912DAB1C21A1254FB30050302ECCE
:10943300C9C2B612E6DD12DB5CD2B612E6DD12DB80
:109443005CD21B80B412559E53443F12D97D755D87
:1094530000755E00900008E0F54C90005EE0F54E6C
:109463009000A2E06003124D8312DA99124D5F124D
:10947300DA9F9000A0E06018126FCD85366D8537B6
:109483006E85366F85377012755312DAB1300CE87A
:1094930012546D90008AE0B40302801D12E6DD9041
:1094A30000A0E0600612755312D9FE12DB5C125461
:1094B300FB30050302ECC980E3C21B755A00755BE0
:1094C30000755C00756D00756E00756FFF7570FF3C
:1094D300B12EB12E301B0B9000A0E06005E55112B8
:1094E300D9FEB12EB12E301B05E55712D9FEB12E90
:1094F300B12E301B05E55812D9FEB12EB12E301B0B
:1095030005E55912D9FEB12EB12E855A57855B5800
:10951300855C599000A0E06005127553F551D21B8C
:1095230012552D30050302ECC980901254FB30050F
:109533000302ECC9127045E55A2536F55AE55B3549
:1095430037F55B5002055CC3E536956FE5379570DB
:10955300500685366F853770C3E536956DE53795CB
:109563006E400685366D85376E2212559E53443FF5
:1095730012D97D12546D90008CE0B400028007B4C0
:109583000102800280111254FB30050302ECC91260
:10959300E6DD12DB5C80EF5345F712D98712DA99C7
:1095A3001254FB30050302ECC9D2B643453012D93D
:1095B3008712DAE612E6DD12DB5CC2B65345CF1240
:1095C300D98712DAE612E6DD12DB5C80D312559EF0
:1095D300D21053443F12D97DD29100000000000005
:1095E30000C29120A1FD75360075370075380075EE
:0695F3003900C20EC20F98
:1095F90090008AE0C3940A4014F094055004D20EF6
:109609008005F0D20ED20F5345F712D9879000A4E6
:10961900E0F559A3E0F55A9000A6E0F55BA3E0F563
:109629005C9000A8E0F55DA3E0F55E9000AAE0F586
:109639005FA3E0F5607408124BD67532008532518C
:10964900753380853352124FD8900088E0F56560F4
:109659001A9000A0E0124BD612DAB790015CE0F53F
:1096690032F551A3E0F533F552801890009EE012CF
:109679004BD612DAB790015AE0F532F551A3E0F56D
:1096890033F55290008AE0B401028028B4020280C6
:10969900238021C3E5519402E55294805016C3E515
:1096A9005194FEE552947F400B124D3D12DA9975A3
:1096B90066008009756601124D9512DA99124DA757
:1096C9009000A2E06003124D8312DA99124D6F12D5
:1096D900DAA5124FD812DAB112DACB12DACB12DAD2
:1096E900CB12546D90008AE0B401028008B40202E2
:1096F90080030298AF5344F712D97D43440812D925
:109709007D75530075540030980AC298E599B41BC9
:109719000302ECC9E565700512EC2E800312EC38E2
:1097290030CFFDC2CF85653675370012EAAC300EF1
:1097390034201226C2B64345205345EF12D9871269
:0F974900DAEF126FCDC0E0E537F4F537E536F40F
:1097580004F536D0E070120537800EC2B65345CFF7
:1097680012D98712DAEF126FCD12EAAC8536558519
:1097780037567557007558000553E5537002055460
:109788000553E55370020554300E29200F0DD2B64B
:109798004345205345EF12D9878008D2B643453058
:1097A80012D98712DAE6126FCD12EAAC0553E553E7
:1097B80070020554E554B4FF03029844E565603E21
:1097C80090008CE06006DF04DE02800A1298746064
:1097D80003B40102E1299000CEE014F07006A3E082
:1097E800605A14F075650090015AE0F532F551A3FE
:1097F800E0F533F552124FD812DAB1029710900003
:109808008CE06006DF04DE02800A11746003B40194
:10981800030297299000CEE014F07006A3E0601CC4
:1098280014F075650190015CE0F532F551A3E0F59F
:1098380033F552124FD812DAB102971075320085FB
:109848003251753380853352124FD8124CED12DAEB
:109858009912A096D13E12DA99AF53AE54EF600137
:109868000E12EBB6746312D9FE02ECC971C8601906
:10987800B4021BC3E555955DE556955EE557955FC2
:10988800E5589560501E740122E565B400E5C3E50E
:10989800559559E556955AE557955BE558955C40B9
:0398A80003740145
:1098AB0022740222C21CE565700512EC2E80031295
:1098BB00EC381254FB300503029BA6301C1AE565ED
:1098CB0012D9FE300E0312DB5C856136856237855B
:1098DB00633885643912DB5C300E21201213C2B65B
:1098EB004345205345EF12D98712DAE612E94B8034
:1098FB000EC2B65345CF12D98712DAE612E6DD85D2
:10990B003661853762853863853964853655853789
:10991B0056853857853958300E1E200F0DD2B64359
:10992B0045205345EF12D9878008D2B643453012F4
:10993B00D98712DAE612E6DDD21CE56570024179B1
:10994B0090008CE06020DF1EDE1CE56512D9FE3036
:10995B000E0312DB5C85613685623785633885645F
:10996B003912DB5C800B11746003B4010401BD611F
:10997B00A69000B2E07006A3E07002412912A096F7
:10998B00124D0112DA99753200753380124FD8904F
:10999B00000EE0F532A3E0F533125003D13E12DA9C
:1099AB0099124D6F12DA999000B212EC45C21C124B
:1099BB0054FB300503029BA6301C14740212D9FE13
:1099CB0085613685623785633885643912DB5C12B5
:1099DB00E6DD853661853762853863853964D21C4F
:1099EB00DFCDDECB740212D9FE85613685623785F9
:1099FB00633885643912DB5C12A0A5124D0112DAB3
:109A0B0099753200753380124FD8753200753380DB
:109A1B00125003D12712DA99124D6F12DA99900076
:109A2B00CEE014F07008A3E0700261A614F0756527
:069A3B0000C00190009E36
:109A4100E0F99000A0E0B50104D001801575320065
:109A5100853251753380853352124FD8E9124BD676
:109A6100D00190015AE0F532F551A3E0F533F552FA
:109A7100124FD812DAB101AF90008CE06020DF1EE6
:109A8100DE1CE56512D9FE300E0312DB5C85613602
:109A910085623785633885643912DB5C800911740E
:109AA1006003B4010201BD9000B4E07006A3E07050
:109AB10002615512A096124D0112DA9975320075A4
:109AC1003380124FD8900012E0F532A3E0F5331243
:109AD1005003D13E12DA99124D6F12DA999000B407
:109AE10012EC45C21C1254FB300503029BA6301C2C
:109AF10014740312D9FE8561368562378563388512
:109B0100643912DB5C12E6DD8536618537628538A2
:109B110063853964D21CDFCDDECB740312D9FE8597
:109B2100613685623785633885643912DB5C12A042
:109B3100A5124D0112DA99753200753380124FD892
:109B4100753200753380125003D12712DA99124D04
:109B51006F12DA999000CEE014F07006A3E0604530
:109B610014F0756501C0019000A0E0F990009EE03D
:109B7100B50104D0018018753200853251753380EA
:109B8100853352124FD812DAB1E9124BD6D0019077
:109B9100015CE0F532F551A3E0F533F552124FD8EF
:039BA10012DAB124
:109BA40001AF753200853251753380853352124FBF
:109BB400D8124CED12A096D13E12DA99746312D9E0
:109BC400FE02ECC9C3E5519402E5529480500EC3E1
:109BD400E55194FEE552947F4006740022740222FB
:109BE400740122125714124FD82212559ED21053C8
:109BF400443F12D97DD29100000000000000C291C0
:109C040020A1FD7536007537007538007539009050
:109C1400000EE0F567A3E0F568756500756600124F
:109C240056FF9000A4E0F559A3E0F55A9000A6E091
:109C3400F55BA3E0F55C9000A8E0F55DA3E0F55EBC
:109C44009000AAE0F55FA3E0F560900008E0124BF5
